:060000000A128A11122809
:10000800FE00030E83120313AA000408AB000A08BB
:10001800AC007F08AD000A128A15162D0A128A1143
:10002800152883136130FD000730FE00EE30FF0015
:10003800533084000A128A15C4230A128A114330E5
:10004800840053300A128A158B230A128A11FC0184
:10005800FD0183010A128A11CD2E0C30831203137D
:100068004B064C04031D39283A2825290630450536
:10007800A40000304605A500043024062504031911
:10008800462847287228C5194A284B287228460846
:10009800A5004508A4000310A50CA40C03302405F2
:1000A800A60000302505A7002608023EA000270864
:1000B8000318013E003EA1000130A2000030A30059
:1000C8000A128A15AD230A128A1102308312031309
:1000D800C5070318C60A0030C6079D28C51D752820
:1000E80076289D2806304505A40000304605A50061
:1000F80024082504031D8128822889280130D70275
:100108000030031CD803D8029D2806304505A400FA
:1001180000304605A500023024062504031D952855
:1001280096289D280130D5020030031CD603D6023C
:100138009D2806304505A40000304605A500063078
:10014800240625040319A928AA28DE2830304505E5
:10015800A40000304605A500103024062504031D20
:10016800B628B728DE284608A5004508A4000310CD
:10017800A50CA40C03302405A60000302505A70013
:100188002608013EA00027080318013E003EA100F2
:100198000130A2000030A3000A128A15AD230A120A
:1001A8008A11023083120313C5070318C60A0030E8
:1001B800C6072529C51EE128E22825290630450558
:1001C800A40000304605A500023024062504031DBE
:1001D800EE28EF28F6280130DF020030031CE00388
:1001E800E002252906304505A40000304605A50093
:1001F800043024062504031D022903290A29013095
:10020800DD020030031CDE03DE0225290630450529
:10021800A40000304605A50024082504031D15295F
:10022800162925295308540403191B291D290130AF
:100238001E290030A400A5012408D3002508D400F5
:10024800252908000E30831203134B064C04031DA6
:100258002E292F29182A06304505A4000030460506
:10026800A5002408250403193A293B296629C5193C
:100278003E293F2966294608A5004508A400031021
:10028800A50CA40C03302405A60000302505A70002
:100298002608023EA00027080318013E003EA100E0
:1002A8000130A2000030A3000A128A15AD230A12F9
:1002B8008A11023083120313C5020030031CC603DF
:1002C800C6029129C51D69296A2991290630450563
:1002D800A40000304605A50024082504031D75293F
:1002E80076297D290130D7070318D80A0030D807A6
:1002F800912906304505A40000304605A5000230C6
:1003080024062504031D89298A2991290130D50746
:100318000318D60A0030D607912906304505A400EF
:1003280000304605A5002408250403199C299D29A9
:10033800D12930304505A40000304605A50010300D
:1003480024062504031DA929AA29D1294608A500A0
:100358004508A4000310A50CA40C03302405A6002E
:1003680000302505A7002608013EA000270803182D
:10037800013E003EA1000130A2000030A3000A1295
:100388008A15AD230A128A11023083120313C5029B
:100398000030031CC603C602182AC51ED429D52955
:1003A800182A06304505A40000304605A50002308D
:1003B80024062504031DE129E229E9290130DF0784
:1003C8000318E00A0030E007182A06304505A400A3
:1003D80000304605A500043024062504031DF52930
:1003E800F629FD290130DD070318DE0A0030DE0793
:1003F800182A06304505A40000304605A500240843
:100408002504031D082A092A182A53085404031925
:100418000E2A102A0130112A0030A400A501240850
:10042800D3002508D400182A080002308A000408DE
:10043800840A8207003420342034203420342034C5
:100448002034203420342034203420342034203404
:1004580020342034203400342D342D342D342D34E0
:100468002D342D344D3445344E3455342D342D34FB
:100478002D342D342D342D34003443346834653410
:1004880063346B342034733475346D3420346534FC
:10049800723472346F347234003453344534543403
:1004A80020344134553454344F343A3420340034F1
:1004B8005334453454342034543465346D347034F2
:1004C8003A3420340034483475346D346934643433
:1004D8006934743479343A3420340034463461341D
:1004E8006E342034543445344D343A342034003496
:1004F800463461346E342034483455344D343A34FB
:10050800203400345334453454342034483475345A
:100518006D343A34203400344534723472346F34D4
:100528007234213421342134003453344534543462
:1005380020344134753474346F34003446344134D3
:100548004E3431343A3420340034463441344E3455
:1005580032343A34203400344234613463346B34F6
:10056800003425342034203400344E346F342034A1
:10057800003459346534733400342534203400345D
:10058800253400343C3400343E34003443340034E1
:1005980083120313B5003503031DD32AD42AF92A7D
:1005A80032087F3EB3003308B8003808B30004307F
:1005B8000310B30CFF3E031DDC2A3308B4003408D3
:1005C800B60038080F39B3003308B70036080A12E6
:1005D8008A1506240A128A118312031337080A128D
:1005E8008A1506240A128A117A2B02303506031D51
:1005F800FE2AFF2A242B3208BF3EB3003308B80076
:100608003808B30004300310B30CFF3E031D072B5A
:100618003308B4003408B60038080F39B30033087B
:10062800B70036080A128A1506240A128A1183129C
:10063800031337080A128A1506240A128A117A2B1C
:1006480003303506031D292B2A2B4F2B32088F3EEA
:10065800B3003308B8003808B30004300310B30CF3
:10066800FF3E031D322B3308B4003408B6003808A7
:100678000F39B3003308B70036080A128A15062462
:100688000A128A118312031337080A128A150624DC
:100698000A128A117A2B04303506031D542B552B68
:1006A8007A2B3208CF3EB3003308B8003808B300BD
:1006B80004300310B30CFF3E031D5D2B3308B40058
:1006C8003408B60038080F39B3003308B7003608C5
:1006D8000A128A1506240A128A118312031337088C
:1006E8000A128A1506240A128A117A2B0800F700C2
:1006F8007703031D802B812BA42B74087F3EF50004
:100708007508FA007A08F50004300310F50CFF3E6E
:10071800031D892B7508F6007608F8007A080F394A
:10072800F5007508F90078080A128A15EC230A12F0
:100738008A1179080A128A15EC230A128A111F2CC9
:1007480002307706031DA92BAA2BCD2B7408BF3EB8
:10075800F5007508FA007A08F50004300310F50C66
:10076800FF3E031DB22B7508F6007608F8007A08DC
:100778000F39F5007508F90078080A128A15EC2374
:100788000A128A1179080A128A15EC230A128A11A8
:100798001F2C03307706031DD22BD32BF62B74089E
:1007A8008F3EF5007508FA007A08F500043003104A
:1007B800F50CFF3E031DDB2B7508F6007608F800E4
:1007C8007A080F39F5007508F90078080A128A15B1
:1007D800EC230A128A1179080A128A15EC230A12E4
:1007E8008A111F2C04307706031DFB2BFC2B1F2CB2
:1007F8007408CF3EF5007508FA007A08F500043051
:100808000310F50CFF3E031D042C7508F60076084E
:10081800F8007A080F39F5007508F90078080A1207
:100828008A15EC230A128A1179080A128A15EC2310
:100838000A128A111F2C08000A128A1522240A1289
:100848008A110A128A15C6240A128A1183120313FE
:100858005203031D302C312CA12C0A128A11AB270C
:100868000A128A1183120313B9003908CF000A1239
:100878008A11AB270A128A1183120313B9003908A7
:10088800CE000A128A11AB270A128A1183120313A7
:10089800B9003908D1000A128A11AB270A128A1145
:1008A80083120313B9003908D0000A128A11AB2742
:1008B8000A128A1183120313B9003908CD004F08B0
:1008C8004E07B900BA01BA0D51083907BB0000300C
:1008D800031801303A07BC0050083B07BD00003040
:1008E800031801303C07BE00FF303D05BF00003053
:1008F8003E05C0004D08C100C20140084206031D64
:10090800872C3F084106031D8A2C8B2C9A2C5108F2
:10091800B900BA013908C9003A08CA004F08B90035
:10092800BA013908C7003A08C800B62C23300A12A1
:100938008A15ED240A128A11B62C0A128A15A023E8
:100948000A128A1183120313B201B20A01300A1281
:100958008A11CC220A128A1172300A128A15ED24E1
:100968000A128A11080083120313B201B20A013075
:100978000A128A11CC220A128A1142300A128A15E6
:10098800ED240A128A11831203134A08BF0049088A
:10099800BE000A128A1142250A128A11DF300A1291
:1009A8008A1579250A128A11AC300A128A15ED24A3
:1009B8000A128A1183120313B201B20A02300A1210
:1009C8008A11CC220A128A1149300A128A15ED249A
:1009D8000A128A11831203134808BF004708BE0091
:1009E8000A128A1142250A128A1197300A128A15A8
:1009F800ED240A128A1183120313B201B20A0330DA
:100A08000A128A11CC220A128A1154300A128A1543
:100A1800ED240A128A11831203135C08BF005B08D5
:100A2800BE000A128A1142250A128A1197300A1248
:100A38008A15ED240A128A1183120313B201B20A2D
:100A480004300A128A11CC220A128A115E300A1264
:100A58008A15ED240A128A11831203135A08BF005B
:100A68005908BE000A128A1142250A128A119730C3
:100A78000A128A15ED240A128A1108000A30831214
:100A88000313B7000030B8006430AE000030AF0088
:100A98003F08B1003E08B0000A128A152E270A1234
:100AA8008A11831203132F08BA002E08B9000A12FC
:100AB8008A150F260A128A1183120313370838047D
:100AC8000319672D682D8D2D0A30B7000030B80046
:100AD8006430AE000030AF003F08B1003E08B000FF
:100AE8000A128A152E270A128A11831203132F0855
:100AF800BA002E08B9000A128A150F260A128A119E
:100B0800831203133708303E0A128A1579250A1210
:100B18008A110A3083120313B7000030B8000A3074
:100B2800AE000030AF003F08B1003E08B0000A1226
:100B38008A152E270A128A11831203132F08BA0066
:100B48002E08B9000A128A150F260A128A11831272
:100B580003133708303E0A128A1579250A128A11BA
:100B68000A3083120313B7000030B8003F08BA00F8
:100B78003E08B9000A128A150F260A128A11831232
:100B880003133708303E0A128A1579250A128A118A
:100B98000800023083120313C0004008B20001307D
:100BA8000A128A11CC220A128A1133300A128A15C3
:100BB800ED240A128A118312031353035404031DEC
:100BC800E62DE72DEE2D9F300A128A15ED240A1224
:100BD8008A11F42D9B300A128A15ED240A128A1103
:100BE800023083120313C0004008B20002300A1218
:100BF8008A11CC220A128A1184300A128A15ED242D
:100C08000A128A11831203136008BF005F08BE002E
:100C18000A128A1142250A128A11A6300A128A1566
:100C2800ED240A128A11023083120313C00040080F
:100C3800B20003300A128A11CC220A128A118B30B0
:100C48000A128A15ED240A128A11831203135E0808
:100C5800BF005D08BE000A128A1142250A128A11D5
:100C6800A6300A128A15ED240A128A11023083125C
:100C78000313C0004008B20004300A128A11CC22C3
:100C88000A128A1192300A128A15ED240A128A1160
:100C980008008312031353035404031D542E552EC6
:100CA800C32E4A085802031D5B2E49085702031831
:100CB8005E2E5F2E6F2E00305C02643003195B02DB
:100CC8000318672E682E852E0130DB070318DC0A0F
:100CD8000030DC07852E58084A02031D752E570878
:100CE80049020318782E792E852E5B085C040319B7
:100CF8007E2E7F2E852E0130DB020030031CDC03A4
:100D0800DC0248085602031D8B2E470855020318BB
:100D18008E2E8F2E9C2E59085A040319942E952E28
:100D2800B52E0130D9020030031CDA03DA02B52EE1
:100D380056084802031DA22E550847020318A52E7F
:100D4800A62EB52E00305A02643003195902031832
:100D5800AE2EAF2EB52E0130D9070318DA0A0030AF
:100D6800DA075C08AF005B08AE005A08B100590802
:100D7800B0000A128A15D3230A128A11CC2E6008F1
:100D8800DC005F08DB005E08DA005D08D900B52EDC
:100D980008008316031388010A128A1585230A128C
:100DA8008A110A128A15CC260A128A11831603138D
:100DB8000614831203138601831603138701831213
:100DC800031387010A128A1120240A128A110A12AF
:100DD8008A114D260A128A11063083160313A200BF
:100DE8001330A100AD30A000A00BF82EA10BF82EF7
:100DF800A20BF82E11308312031345058316031333
:100E0800A000003083120313460583160313A100C4
:100E180020032104031D112F122F182F0A128A15DF
:100E28006A260A128A11E62E113083120313450529
:100E380083160313A000003083120313460583169C
:100E48000313A100113020062104031D2C2F2D2F80
:100E5800332F0A128A1597270A128A11E62E0A12C8
:100E68008A11B7240A128A11E62E0A128A11122848
:100E780083120313B201B20A01300A128A11CC227A
:100E88000A128A1112300A128A15ED240A128A11DE
:100E9800023083120313C0004008B20002300A1265
:100EA8008A11CC220A128A113E300A128A15ED24C0
:100EB8000A128A11831203135808BF005708BE008C
:100EC8000A128A1142250A128A11DF300A128A157B
:100ED80079250A128A11AC300A128A15ED240A12F1
:100EE8008A11023083120313C0004008B200033095
:100EF8000A128A11CC220A128A1168300A128A153B
:100F0800ED240A128A11831203135608BF005508EC
:100F1800BE000A128A1142250A128A11A3300A1247
:100F28008A15ED240A128A11023083120313C000B5
:100F38004008B20004300A128A11CC220A128A111F
:100F48007B300A128A15ED240A128A1108008312CE
:100F58000313B101881CB12FB22FAE2F13308312A7
:100F68000313AE00AE0BB62F831203138818BD2FE0
:100F7800BE2FCF2F0130AE003108073C013EC62FEF
:100F88000310AE0DFF3E031DC42F2E08FF3AAF001D
:100F98002F08B005E22F0130AE003108073C013EB2
:100FA800D72F0310AE0DFF3E031DD52F2E08AF001F
:100FB8002F08B0048818E12FE22FDE2F0130AE0091
:100FC8002E08B10708303102031CEB2FEC2FAE2F8F
:100FD800300808000134003456340034203400341A
:100FE8003234003432340034143400345A34003487
:10170A008316031301130B168B170800640080015C
:10171A00840A04060319003404068C2B00300A12CA
:10172A008A15EC230A128A1501300A128A15EC234B
:10173A000A128A15080000300A128A1506240A12AB
:10174A008A1501300A128A1506240A128A15080017
:10175A00831203132208FB007B08F40020080A12F4
:10176A008A117B230A128A1510300A128A15A124BB
:10177A000A128A1508007E088A007F0882000A1267
:10178A008A15C0230A128A158000840A04087D0675
:10179A0003190034FF0A0319FE0AC42B8312031328
:1017AA002E08803E8700023083120313B4000430EF
:1017BA00B300B930B200B20BE02BB30BE02BB40B81
:1017CA00E02BE72B83120313300887000800F3008D
:1017DA0083120313081173080A128A157F240A1246
:1017EA008A158312031388150B30F2006230F10058
:1017FA00F10BFD2BF20BFD2B000083120313881152
:10180A00080083120313B100081131080A128A155D
:10181A005F240A128A158312031388150B30831268
:10182A000313B0006130AF00AF0B192CB00B192CA9
:10183A001E2C8312031388110800831603138810C1
:10184A008312031388102F3083120313AF00BF30A3
:10185A00AE00AE0B2E2CAF0B2E2C83120313881462
:10186A00133083120313AE00AE0B392C8316031305
:10187A00881408000A30831203134B064C04031D14
:10188A00472C482C5E2C451C4B2C4C2C532C0130DD
:10189A00C5020030031CC603C602592C0130C50715
:1018AA000318C60A0030C6070A128A1593230A12B9
:1018BA008A15080083120313AE002E1C652C662CB1
:1018CA00682C0816692C0812AE1C6C2C6D2C6F2C17
:1018DA008816702C88122E1D732C742C762C0817DF
:1018EA00772C0813AE1D7A2C7B2C7D2C88177E2C26
:1018FA0088130800F000701C832C842C882C831217
:10190A00031308168B2C831203130812F01C8E2C57
:10191A008F2C912C8816922C8812701D952C962C3F
:10192A00982C0817992C0813F01D9C2C9D2C9F2C81
:10193A008817A02C88130800F500F601F701B82CC7
:10194A007608750784000A128A1119220A128A1562
:10195A000A128A1540250A128A150130F607031859
:10196A00F70A0030F7077608750784000A128A1109
:10197A0019220A128A15003A031DC42CC52CA52C5B
:10198A00080083120313D201193083120313AE0025
:10199A00AE0BCD2CD02C831203138818D52CD62C41
:1019AA00EC2C343083120313AE00AE0BDA2C000099
:1019BA0083120313881CE22CE32CE52CD201D20AF1
:1019CA00203083120313AE00AE0BE92C000008008E
:1019DA0083120313B500B301B401082D3308350788
:1019EA0084000A128A1119220A128A150A128A1501
:1019FA0079250A128A15013083120313B3070318D3
:101A0A00B40A0030B4073308350784000A128A1171
:101A1A0019220A128A15003A031D142D152DF32CCA
:101A2A00080006080F39A800A9012808CB002908D0
:101A3A00CC000A128A1126210A128A150A128A1160
:101A4A0031200A128A150A128A153F240A128A15A7
:101A5A000A128A15B6250A128A158B1083120313E5
:101A6A002D08FF002C088A002B0884002A0E830008
:101A7A00FE0E7E0E0900F40074080F39F100710899
:101A8A00F2007408F039F1007108F30083120313AD
:101A9A0008157308F10004300310F10CFF3E031D12
:101AAA00512D71080A128A157F240A128A15831287
:101ABA00031388151A30F100F10B612D000083120F
:101ACA000313881172080A128A157F240A128A15CA
:101ADA008312031388151A30F100F10B722D0000DE
:101AEA00831203138811080083120313B200320809
:101AFA000F39AF002F08B0003208F039AF002F08B5
:101B0A00B10008153108AF0004300310AF0CFF3ED6
:101B1A00031D8A2D2F080A128A155F240A128A15B4
:101B2A00831203138815193083120313AF00AF0B06
:101B3A009C2D9F2D83120313881130080A128A15CF
:101B4A005F240A128A158312031388151930831227
:101B5A000313AF00AF0BAF2DB22D831203138811FD
:101B6A0008000630831203134B064C04031DBE2DD6
:101B7A00BF2D0E2E39304505F00000304605F10024
:101B8A0070037104031DCA2DCB2DD22D0830C50751
:101B9A000318C60A0030C6070E2E39304505F00074
:101BAA0000304605F100093070067104031DDE2D70
:101BBA00DF2DE62D0830C5020030031CC603C6021D
:101BCA000E2E31304505F00000304605F100113087
:101BDA0070067104031DF22DF32DFA2D2030C5076E
:101BEA000318C60A0030C6070E2E31304505F0002C
:101BFA0000304605F100313070067104031D062ECF
:101C0A00072E0E2E2030C5020030031CC603C60262
:101C1A000E2E080083120313BD01BA1F152E162EAD
:101C2A001D2EB909BA09B90A0319BA0ABD01BD0AB2
:101C3A00B81F202E212E262EB709B809B70A031974
:101C4A00B80A3708380403192B2E2C2E5B2EBC0138
:101C5A00BC0A3A2E01300310B70DB80DFF3E031D22
:101C6A00302E0130BB003B08BC07B81F3D2E3E2E6C
:101C7A002F2E38083A02031D442E37083902031C56
:101C8A00472E482E4E2E3708B9023808031CBA03CD
:101C9A00BA0201300310B80CB70CFF3E031D4F2ED9
:101CAA000130BC02031D5A2E5B2E3E2E3D0803193D
:101CBA005F2E602E652EB909BA09B90A0319BA0A44
:101CCA003A08B8003908B70008000930831203132C
:101CDA004505C10000304605C20041034204031D08
:101CEA00772E782E952EB201B20A4608C200450810
:101CFA00C1000310C20CC10C41080339023E0A128A
:101D0A008A11CC220A128A15AA300A128A15ED24DF
:101D1A000A128A150A128A113C270A128A15CB2E30
:101D2A000F304505C10000304605C2000D3041069E
:101D3A0042040319A12EA22EBA2EB201B20A4608F3
:101D4A00C2004508C1000310C20CC10C4108033986
:101D5A00023E0A128A11CC220A128A15A8300A12E5
:101D6A008A15ED240A128A158F2E1030C50703181A
:101D7A00C60A0030C60719304505C50000304605B9
:101D8A00C6000A128A15A0230A128A150800003012
:101D9A000A128A155F240A128A1534308312031331
:101DAA00B300F130B200B20BD82EB30BD82E0330E9
:101DBA000A128A1506240A128A150D308312031391
:101DCA00B300FB30B200B20BE82EB30BE82E03309F
:101DDA000A128A1506240A128A151D308312031361
:101DEA00B3009030B200B20BF82EB30BF82E0000FD
:101DFA0003300A128A1506240A128A1502300A12B8
:101E0A008A1506240A128A1502300A128A1506242D
:101E1A000A128A1508300A128A1506240A128A1525
:101E2A0000300A128A1506240A128A150C300A1280
:101E3A008A1506240A128A1500300A128A150624FF
:101E4A000A128A1506300A128A1506240A128A15F7
:101E5A00080083120313B401AF1F342F352F3C2F10
:101E6A00AE09AF09AE0A0319AF0AB401B40AB11F29
:101E7A003F2F402F492FB009B109B00A0319B10AFF
:101E8A000130B2003208B406B501B6012E082F049B
:101E9A000319502F512F882FB301B30A5F2F013036
:101EAA000310AE0DAF0DFF3E031D552F0130B200DA
:101EBA003208B307AF1F622F632F542F013003106C
:101ECA00B50DB60DFF3E031D642F2F083102031D09
:101EDA00702F2E083002031C732F742F7B2F2E08AD
:101EEA00B0022F08031CB103B102351401300310EC
:101EFA00AF0CAE0CFF3E031D7C2F0130B302031D55
:101F0A00872F882F632F340803198C2F8D2F922F38
:101F1A00B509B609B50A0319B60A3608AF00350875
:101F2A00AE0008003130831203134505C1000030AA
:101F3A004605C200113041064204031DA52FA62FF3
:101F4A00C32FB201B20A4608C2004508C1000310F5
:101F5A00C20CC10C41080339013E0A128A11CC2273
:101F6A000A128A15AA300A128A15ED240A128A154B
:101F7A000A128A11CD250A128A15FF2F3730450514
:101F8A00C10000304605C200373041064204031939
:101F9A00CF2FD02FE82FB201B20A4608C200450857
:101FAA00C1000310C20CC10C41080339013E0A12D8
:101FBA008A11CC220A128A15A8300A128A15ED242F
:101FCA000A128A15BD2F0830C5020030031CC60349
:101FDA00C60201304505C50000304605C60004307A
:101FEA00C5070318C60A0030C6070A128A15A023B5
:061FFA000A128A1508001E
:02400E007A3FF7
:00000001FF
