:060000000A128A11EA2F2A
:100DFC008316031381128111011181100110080057
:100E0C00102F9C308312031381000B110B1D0F2F1D
:100E1C00102F0C2F0130F0020030031CF103F102F3
:100E2C00700A031D1D2F710A031D1D2F1E2F072F66
:100E3C0008007108803AF4007308803A7402031DAC
:100E4C00292F7208700203182C2F2D2F492F71088F
:100E5C0083120313A7007008A6000430A40000300E
:100E6C00A50070087202A2007108031C710A7302BB
:100E7C00A3006430F40072087402A0007309031814
:100E8C00013EA100642F730883120313A70072089C
:100E9C00A6000130A4000030A50072087002A20068
:100EAC007308031C730A7102A3006430F400700809
:100EBC007402A00071090318013EA10008008316FA
:100ECC0003138601831203138601FF308316031369
:100EDC0088000A128A11FE260A128A118312031341
:100EEC00881F792F7A2F952F08087F39F500F60186
:100EFC0078087606031D842F770875060319872F4B
:100F0C00882F952F08087F39F500F6017508FB002E
:100F1C007608FC007C08F8007B08F700B32F881BD0
:100F2C00982F992FB32F08087F39F500F60129085F
:100F3C007606031DA32F280875060319A62FA72FC5
:100F4C00B32F08087F39F500F6017508F90076080B
:100F5C00FA007A08A9007908A8007C08F1007B083F
:100F6C00F0007A08F3007908F2000A128A111F27A0
:100F7C000A128A1105308312031386002708F10028
:100F8C002608F0000A128A1106270A128A11831207
:100F9C000313240886002308F1002208F0000A122B
:100FAC008A1106270A128A1183120313860121085B
:100FBC00F1002008F0000A128A1106270A128A1181
:100FCC00742F0A128A110028F701F801F901FA01AD
:100FDC00FB01FC0183120313A001A101A201A301D7
:100FEC00A401A501A601A701A801A90183010A1268
:040FFC008A11652FC2
:02400E007A3FF7
:00000001FF
